:400000000080002011000000A10A0000A10A000080B500AF024A034B1B68136000F04AFDBC760040FA46004010B5054C237833B9044B13B10448AFF300800123237010BD7A
:400040004081FF1F00000000A8130000084B10B51BB108490848AFF300800848036803B910BD074B002BFBD0BDE81040184700BF000000004481FF1FA8130000C880FF1F9C
:400080000000000080B500AF62B600F087FE642000F0B0FD00F002F8FEE700BF80B5ADF5856D02AF3C2387F81F3497F81F1438460A4B00930A4B0B4A00F018F83B461846C4
:4000C00000F088F83846084B0022002100F0F0F900BF07F58467BD4680BD00BF851200002D12000075110000AC13000080B586B000AFF8607A603B600B46FB72FB68FA7A67
:400100001A70FB687A685A60FB683A689A60FB683A6ADA60FB6800221A74FB6801225A74FB6800229A74FB68124A5A61FB6800221A76FB6802225A76FB685B68FA7A00215B
:400140001046984700237B610AE0FB68DB680A497A690A441278104698477B6901337B617B69072BF1DDFB689B68984700BF1837BD4680BDD0130000C813000080B483B0E8
:4001800000AF78600B46FB70FB78002B0ED0FB78012B0BD0FB78022B08D0FB78032B05D0FB78042B02D0FB78052B02D17B68FA781A7600BF0C37BD4680BC704780B483B0EA
:4001C00000AF78607B681B7E18460C37BD4680BC704700BF80B584B002AF78607B681B7C01933F2300937F2300220021786800F0FFF900BF0837BD4680BD00BF90B58BB087
:4002000002AFF860B9607A603B600023FB6107E10023BB61FCE03B8E013B002B00DA0733DB100133FA6902FB03F2BB69002B00DA0733DB1013441A463B6813441B781946FC
:40024000BA697C4B1340002B03DA013B63F00703013341FA03F3DBB203F00103FB75FB681B7E002B14D1BA68BB69D1187A68FB69D018BA68BB69D4187A68FB691344FA7D98
:400280000192009323460246F86800F0B1F91CE0FB681B7E012B18D1BA68BB69D1187A68FB69D018BA68BB69D4187A68FB691344FA7D62F00102D2B2D243D2B20192009325
:4002C00023460246F86800F093F9FB681B7E022B19D1FB7D012B40F09880BA68BB69D1187A68FB69D018BA68BB69D4187A68FB691344FA68527C0192009323460246F868DF
:4003000000F076F981E0FB681B7E032B18D1FB7D002B7AD1BA68BB69D1187A68FB69D018BA68BB69D4187A68FB691344FA68527C0192009323460246F86800F059F964E0E3
:40034000FB681B7E042B2ED1FB7D012B15D1BA68BB69D1187A68FB69D018BA68BB69D4187A68FB691344FA68527C0192009323460246F86800F03CF947E0BA68BB69D118BB
:400380007A68FB69D018BA68BB69D4187A68FB691344FA68127C0192009323460246F86800F026F931E0FB681B7E052B2DD1FB7D002B15D1BA68BB69D1187A68FB69D018E9
:4003C000BA68BB69D4187A68FB691344FA68527C0192009323460246F86800F009F914E0BA68BB69D1187A68FB69D018BA68BB69D4187A68FB691344FA68127C019200939F
:4004000023460246F86800F0F3F8BB690133BB613A8EBB699A423FF7FEAEFB690133FB61BA8EFB699A423FF7F3AE00BF2437BD4690BD00BF0700008080B588B002AFF86039
:40044000B9607A60FB70F868FFF7B8FE0346FB75FB685B7E1946F868FFF790FEFB78203B3B613B69002B1EDB3B695E2B1BDCFB685A693B695B011344991CFB685B691B7898
:400480009BB2FA685269527892B2019200930B467A68B968F868FFF7B1FEFB7D1946F868FFF76CFE00E000BF1837BD4680BD00BF80B586B000AFF860B9607A603B6000239E
:4004C0007B6100233B6126E07B693A6813441B780A2B09D1FB685B695B781A467B6813447B6000233B6113E0FB685B691B781A463B6903FB02F2BB68D1187B693A68134422
:400500001B787A68F868FFF797FF3B6901333B617B6901337B617B693A6813441B78002BD2D100BF1837BD4680BD00BF80B582B000AF78600B46FB701346BB70FB78072BD4
:400540001FD8BB78072B1CD87B685B687A6812780021104698477B68DB68002098477B68DB68222098477B68DB68FA78104698477B68DB68BA78104698477B689B68984738
:4005800000E000BF0837BD4680BD00BF80B582B000AF78600B46FB701346BB7097F90330002B20DB97F90230002B1CDB7B685B687A6812780021104698477B68DB680020B5
:4005C00098477B68DB68212098477B68DB68FA78104698477B68DB68BA78104698477B689B68984700E000BF0837BD4680BD00BF80B588B000AFF860B9607A603B60BB68B5
:40060000002B01DA0023BB603B687F2B01DD7F233B603A68BB689A42C0F2C6807B68002B01DA00237B60BB6A3F2B01DD3F23BB62BA6A7B689A42C0F2B9807B68002B00DAEC
:400640000733DB10D9B2BB6A002B00DA0733DB10DBB21A46F868FFF769FFBB68DBB23A68D2B21946F868FFF791FFFB685B68FA681278002110469847FB68DB684020984768
:400680007B68002B00DA0733DB10BB617EE00023FB777B68002B00DA0733DB101A46BB699A420ED17A68434B1340002B03DA013B63F007030133C3F10803FF2242FA03F328
:4006C000FB77BB6A002B00DA0733DB101A46BB699A4212D1BA6A374B1340002B03DA013B63F0070301330133FF2202FA03F35AB297F91F3013435BB2FB77BB687B613EE004
:4007000097F82C30002B12D1BB69DA017B691344BA69D1017A690A44F9680A44917EFA7F0A40D1B2FA6813440A469A7619E0BB69DA017B69134497F91F20D24351B2BA6906
:40074000D0017A690244F8680244907EFA7F0240D2B252B20A4352B2D1B2FA6813440A469A76FB68DB68BA69D1017A690A44F9680A44927E104698477B6901337B617A6904
:400780003B689A42BCDDBB690133BB61BB6A002B00DA0733DB101A46BB699A42BFF677AFFB689B68984702E000BF00E000BF2037BD4680BD0700008080B582B000AF786092
:4007C00039603A680021786800F0E5FD00BF0837BD4680BD80B584B000AFF860B9607A607A68B968F86800F0CBFD00BF1037BD4680BD00BF80B483B000AF0346FB71FEE77A
:4008000080B487B000AF7860396000233B6100237B6127E07B699B007A6813441B68BB60BB68FB73BB6823F0FF03BB6014E03B695B003A6813441B781A46BB681344194676
:400840003B695B003A6813445B780B703B6901333B61FB7B013BFB73FB7B002BE7D17B6901337B617B690B2BD4D900BF1C37BD4680BC704780B582B000AF294B02221A704A
:400880004FF0402308221A70264B03221A70264B264A1278D2B21A70254B08221A80254B41F251221A800023FB7019237B6014E0FB785B00DAB2204B1B78DBB203F00103F0
:4008C000DBB21343DBB203F00303FB704FF4F07000F01AFD7B68013B7B607B68002B02D0FB78032BE4D17B68002B02D10320FFF781FF124B4FF480721A80104B07221A7096
:400900000F4B00221A700F4B48221A700B4B00221A700D4B02221A7000BF0837BD4680BD0043004000420040A146004008010049224200402042004025420040044000402E
:4009400006400040084000400140004080B483B000AF0B4B1B78FB710A4AFB7903F00703DBB21370084AFB791B09DBB21370074B44221A7000BF0C37BD4680BC704700BFB5
:40098000CF0100496E5800406F5800407658004080B582B000AF72B6314A314B1B78DBB243F00403DBB213700023FB7113E0FA7913465B0013445B002A4A13443B603B6800
:4009C0001A683B689B889BB219461046FFF7F4FEFB790133FB71FB79082BE8D922494FF09040FFF70DFF214A204B1B78DBB243F00203DBB213701E4A1D4B1B78DBB243F06C
:400A00000203DBB213700A221A491B48FFF7E2FE08221A491A48FFF7DDFE082219491A48FFF7D8FE194A194B1B78DBB243F00803DBB21370164B61221A70FFF71BFF144B4D
:400A400081221A70134B01221A70FFF77FFF0E2211491248FFF7BEFE00BF0837BD4680BDE8460040B41F000030000048035001401350014090000048C05100409C000048F8
:400A800012510040A400004822510040224300400048004004000840A0430040B043004080B500AF00F040FC03461B680C2B00D1FEE7FEE780B586B000AF224B7B61224BA7
:400AC0003B61204B7B6135E03B691B68FB603B695B68BB603B699B683B6000237B600CE0FB681A68BB681A60BB680433BB60FB680433FB607B6804337B607A683B689A428C
:400B0000EED13B69DB683B6000237B6008E0BB6800221A60BB680433BB607B6804337B607A683B689A42F2D13B6910333B617B69013B7B617B69002BC6D100F0FBFBFFF740
:400B4000A1FAFEE7010000001020000080B582B000AF184B184A1A60184A184B1B6843F40073136000237B600FE07B68032B04D8134A7B6852F8233000E0124B12497A68D9
:400B800041F822307B6801337B607B682F2BECD90E4B1B78DAB20E4B1A700E4B0A4A1A60FFF7F6FE0C4B00221A6000BF0837BD4680BD00BF0CED00E00004FA0514ED00E09D
:400BC00000000000A10A00000080FF1FBC760040C480FF1F08ED00E0C080FF1F80B483B000AF0346FB7101BE00BF0C37BD4680BC704700BF80B582B000AF786008E00C4B37
:400C00001B68184600F080FB7B68A3F500437B607B68B3F5004FF2D8064B1B687A6802FB03F3184600F070FB00BF0837BD4680BDD880FF1FD080FF1F80B584B000AF034646
:400C40003960FB710F4B1B68FB60FB791F2B02D90020FFF7C3FFFB7903F01F0310339B00FA6813441B68BB60FB7903F01F0310339B00FA6813443A681A60BB681846103704
:400C8000BD4680BD08ED00E080B582B000AF03460A46FB711346BB71BB79072B02D90020FFF79CFFFB791F2B02D90020FFF796FFFB7903F01F0303F1604303F56443BA7957
:400CC0005201D2B21A7000BF0837BD4680BD00BF80B500AF144B02221A70144B81221A70134B08221A70134B02221A70124B00221A70124B4FF400421A6007210F20FFF749
:400D0000C3FF0F490F20FFF797FF0E4B10221A700D4B00221A700D4B00221A700C4B00221A7000BF80BD00BFD6490040C8490040CA490040DB490040DC49004080E100E0F6
:400D4000CD0D00005D81FF1F6C81FF1F6981FF1F6A81FF1F80B582B000AF00F0DDFA0346FB710C4A0B4B1B78DBB243F00403DBB21370094A084B1B78DBB243F00403DBB24C
:400D80001370FB79184600F0CBFA00BF0837BD4680BD00BFA5430040B543004080B500AF084B1B78002B04D1FFF792FF054B01221A70FFF7CFFF044B4FF400421A6000BFAD
:400DC00080BD00BF5C81FF1F00E100E080B582B000AFA74B1B78FB71A64B1B78DBB203F04003DBB2002B00F0A981FB7903F00103002B00F080819F4B1B78DBB2453B052BDA
:400E000000F2758101A252F823F000BF250E00004B0F0000EF100000EF100000250E000037100000FB7923F02003FB71FB7903F00A03DBB2082B46D18E4B1B78DBB2452B3C
:400E40003AD18D4B1B78DBB2002B0FD08B4A8C4B1B681B78DBB21370854B04221A70894B01221A70834B46221A7044E1864B1B78DBB203F00203002B0FD0844B1B78DBB2CB
:400E800043F00A03DAB2814B1A707A4B60221A707F4B4FF400421A602DE17E4A7D4B1B78DBB243F01003DBB213707B4B10221A706F4B04221A701EE16D4B00221A706D4B5B
:400EC0004A221A7017E1FB7903F00A03DBB20A2B37D16E4B1B78DBB263F05F03DAB26B4B1A70694B1B78DBB203F00203002B19D0604B1B78DBB203F00803002B01D009239B
:400F000000E00A23DAB2614B1B78DBB21343DAB25E4B1A70574B60221A705D4B4FF400421A60E8E05B4A5B4B1B78DBB243F01003DBB21370584B10221A704D4B04221A70B2
:400F4000D9E00020FFF74AFED5E0FB7903F00203002B42D14B4B1B78DAB2474B1B78DBB29A4214D2454A464B1B6846490978C9B20B441B78DBB213703D4B04221A70414BEE
:400F80001B78DBB20133DAB23E4B1A70B3E03E4B1B78DBB203F00203002B0FD03B4B1B78DBB243F00A03DAB2384B1A70314B60221A70374B4FF400421A609CE0354A354BFD
:400FC0001B78DBB243F01003DBB21370324B10221A70274B04221A708DE02B4B1B78DBB203F00203002B0FD0284B1B78DBB263F06503DAB2254B1A701E4B60221A70244B63
:401000004FF400421A6076E0224A224B1B78DBB243F01003DBB213701F4B10221A70144B04221A70194B1B78DBB263F06F03DAB2164B1A705FE0194B1B68194A1278D2B280
:4010400013440E4A1278D2B21A70154B1B78DBB20133DAB2124B1A70114B1B78DAB2114B1B78DBB29A421FD2014B10221A7042E0D74900405D81FF1F6D81FF1FD84900404B
:401080006481FF1F6A81FF1F6881FF1F6C81FF1F80E100E0D6490040D94900406081FF1F6981FF1F6B81FF1F2C4B1B78DBB203F00203002B0FD02A4B1B78DBB243F0090392
:4010C000DAB2274B1A70274B60221A70264B4FF400421A600FE0254A244B1B78DBB243F01003DBB21370224B00221A7003E00020FFF774FD00BFFB7903F02003002B28D048
:40110000184B1B78DBB203F00803002B01D0012300E00223DAB2124B1B78DBB21343DAB20F4B1A70114A114B1B78DBB223F01003DBB213700B4B10221A700AE0094B1B784A
:40114000DBB203F01003DBB2002B02D1054B10221A7000BF0837BD4680BD00BF6881FF1F6C81FF1F5D81FF1F80E100E0D6490040D749004080B485B000AF03460A46FB711D
:401180001346BB710223FB73234B1B78DBB2102B3CD1224B1B78DBB203F00803002B33D11F4B4FF400421A60FB795B00FB71BB79002B07D0FB7943F00103FB71164B4922CA
:4011C0001A7002E0144B45221A70164AFB791370124B01221A7000BF134B1B78DBB203F00103002BF8D0104B1B78DBB203F00A03DBB20A2B05D1084B10221A700323FB73F5
:4012000004E00023FB7301E00123FB73FB7B18461437BD4680BC70475D81FF1FD949004080E100E0D8490040D749004080B483B000AF0223FB71104B1B78DBB203F0040335
:40124000002B12D00C4B10221A700C4B04221A700B4B10221A7000BF084B1B78DBB203F02103002BF8D00023FB71FB7918460C37BD4680BC704700BFD9490040D7490040DE
:401280005D81FF1F80B485B000AF0346FB710223FB73184B1B78DBB203F00403002B22D0154AFB791370154B04221A70144B46221A7000BF114B1B78DBB203F00103002B24
:4012C000F8D00E4B1B78DBB203F00203002B05D10B4B60221A700023FB7304E0084B60221A700323FB73FB7B18461437BD4680BC704700BFD9490040D8490040D7490040F3
:401300005D81FF1F000000000230800803D000BF01380046FCD17047EFF3108072B6704780F31088704700BF014B1868704700BF3C81FF1F0E4B70B51E460E4C0025E41A14
:40134000A410A54204D056F8253098470135F8E700F04CFE084B094C1E46E41AA4100025A54204D056F8253098470135F8E770BDF81F0000F81F0000F81F00000020000066
:4013800010B5431E0A44914204D011F8014B03F8014FF8E710BD03460244934202D003F8011BFAE7704700000000000057454C434F4D450A544F0A454C454354524F4E4979
:4013C000580A464952535400008D14A1C8AF20000C1000000000000000000000000000000000000000000000000000000000000000000000600060006000600060006000CE
:40140000600060006000600000000000600060000000000098019801980198019801980100000000000000000000000000000000000000009801980198019801FE07FE0768
:4014400098019801FE07FE0798019801980198010000000060006000F803F80366006600F801F80160066006FC01FC01600060000000000000001C061C069C0180018001EF
:401480006000600018001800980386038603000000000000780078008601860166006600180018006606660686018601780678060000000060006000600060006000600073
:4014C00000000000000000000000000000000000000000008001800160006000180018001800180018001800600060008001800100000000180018006000600080018001E6
:401500008001800180018001600060001800180000000000980198016000600098019801000000000000000000000000000000000000000000000000000060006000600073
:40154000FC03FC0360006000600000000000000000000000000000000000000000000000000000000000C000C000C0003000300000000000000000000000000000000000AD
:40158000FC03FC03000000000000000000000000000000000000000000000000000000000000000000000000000060006000000000000000000300030003C000C000C00024
:4015C000C00030003000300030000C000C000C0000000000F801F8010606060686078607660666061E061E0606060606F801F8010000000060006000780078006000600089
:40160000600060006000600060006000F801F80100000000F801F8010606060600060006800180016000600018001800FE07FE0700000000FE07FE0780018001600060009A
:40164000800180010006000606060606F801F8010000000080018001E001E0019801980186018601FE07FE07800180018001800100000000FE07FE0706000600FE01FE012C
:40168000000600060006000606060606F801F80100000000E001E0011800180006000600FE01FE010606060606060606F801F80100000000FE07FE070006000680018001D2
:4016C0006000600018001800180018001800180000000000F801F8010606060606060606F801F8010606060606060606F801F80100000000F801F801060606060606060642
:40170000F807F8070006000680018001780078000000000000000000000000006000600000000000600060000000000000000000000000000000000000000000600060006D
:40174000000000006000600060001800180000000000000000000000800180016000600018001800600060008001800100000000000000000000000000000000FC03FC0367
:4017800000000000FC03FC030000000000000000000000000000000018001800600060008001800160006000180018000000000000000000F801F801060606060006000633
:4017C0008001800160006000000000006000600000000000F801F801060606067607F60736063606F606F60706070600FC01FC0100000000F801F801060606060606060643
:40180000FE07FE0706060606060606060606060600000000FE01FE010606060606060606FE01FE010606060606060606FE01FE0100000000F801F8010606060606000600E6
:40184000060006000600060006060606F801F80100000000FE01FE010606060606060606060606060606060606060606FE01FE0100000000FE07FE070600060006000600B0
:40188000FE01FE010600060006000600FE07FE0700000000FE07FE070600060006000600FE01FE0106000600060006000600060000000000F801F8010606060606000600AE
:4018C000E607E6070606060606060606F801F80100000000060606060606060606060606FE07FE0706060606060606060606060600000000FC03FC036000600060006000D4
:40190000600060006000600060006000FC03FC0300000000F807F807C000C000C000C000C000C000C000C000C600C60038003800000000000606060686018601660066007D
:401940001E001E0066006600860186010606060600000000060006000600060006000600060006000600060006000600FE07FE0700000000060606069E079E0766066606AD
:40198000060606060606060606060606060606060000000006060606060606061E061E066606660686078607060606060606060600000000F801F80106060606060606060B
:4019C000060606060606060606060606F801F80100000000FE01FE010606060606060606FE01FE0106000600060006000600060000000000F801F80106060606060606063B
:401A00000606060666066606860186017806780600000000FE01FE010606060606060606FE01FE0106060606060606060606060600000000F807F807060006000600060022
:401A4000F801F8010006000600060006FE01FE0100000000FE07FE07600060006000600060006000600060006000600060006000000000000606060606060606060606068C
:401A8000060606060606060606060606F801F8010000000006060606060606060606060606060606060606069801980160006000000000000606060606060606060606063A
:401AC0000606060606066606660666069801980100000000060606060606060698019801600060009801980106060606060606060000000006060606060606060606060680
:401B00009801980160006000600060006000600000000000FE07FE070006000680018001600060001800180006000600FE07FE0700000000F801F8011800180018001800C3
:401B4000180018001800180018001800F801F801000000000C000C000C003000300030003000C000C000C000C00000030003000300000000F801F801800180018001800100
:401B8000800180018001800180018001F801F8010000000060006000980198010000000000000000000000000000000000000000000000000000000000000000000000003B
:401BC000000000000000000000000000FE07FE070000000030003000C000C0000000000000000000000000000000000000000000000000000000000000000000F801F80109
:401C000000060006F807F80706060606F807F807000000000600060006000600E601E6011E061E060606060606060606FE01FE01000000000000000000000000F801F80136
:401C4000060606060600060006060606F801F80100000000000600060006000678067806860786070606060606060606F807F807000000000000000000000000F801F801E8
:401C800006060606FE07FE0706000600F807F80700000000E001E0011806180618001800FE01FE01180018001800180018001800000000000000000000000000F806F80640
:401CC000060706070606F807F8070006F807F80700000000060006000600060006000600E601E6011E061E06060606060606060600000000600060000000000078007800A2
:401D0000600060006000600060006000F801F8010000000000030003000000000003000300030003000300030C030C03F000F0000000000006000600060006000603060331
:401D4000C600C6003E003E00C600C6000603060300000000780078006000600060006000600060006000600060006000F801F8010000000000000000000000009E019E01DD
:401D800066066606660606060606060606060606000000000000000000000000E601E6011E061E06060606060606060606060606000000000000000000000000F801F80153
:401DC000060606060606060606060606F801F801000000000000000000000000F601F6010E060E060606FE01FE01060006000600000000000000000000000000F806F8067B
:401E0000060706070606F807F807000600060006000000000000000000000000E601E6011E061E06060006000600060006000600000000000000000000000000F803F8033C
:401E400006000600F801F80100060006FC01FC010000000000000000180018007E007E00180018001800180018061806E001E00100000000000000000000000006060606BC
:401E8000060606060606060686078607780678060000000000000000000000000606060606060606060606069801980160006000000000000000000000000000060606068A
:401EC00006060606060666066606660698019801000000000000000000000000060606069801980160006000980198010606060600000000000000000000000006060606DC
:401F000006060606F807F80700060006F801F801000000000000000000000000FE07FE07800180016000600018001800FE07FE070000000080018001600060006000600005
:401F400018001800600060006000600080018001000000006000600060006000600060006000600060006000600060006000600000000000180018006000600060006000BF
:401F800080018001600060006000600018001800000000000000000000000000000038063806C601C6010000000000000000000000000000C849004019000051004010005A
:401FC000305100404000F0510040100000000140001000140140000800400140000A004C014000020050014020004300F8B500BFF8BC08BC9E4670474D0000004D0B00006F
:40200000F8B500BFF8BC08BC9E4670472900000020200000C880FF1F78000000300000000000000000366E01C05D0000180000000000E02E000000000000000000000000C2
:402040000000000000000000000000000000000000000000EA1F00000000000000000000000000000000000000000000000000000000000000000000000000000000000057
:402080000000000000000000000000000000000000000000DC80FF1F00000000000000000000000000000000000000000000000000000000000000000000000000000000A6
:4020C00000000000000000000000000000000000000000000000000000000000000000000000000000000000000000000000000000000000000000000000000000000000E0
:40210000000000000000000000000000000000000000000000000000000000000000000000000000000000000000000000000000000000000000000000000000000000009F
:40214000000000000000000000000000000000000000000000000000000000000000000000000000000000000000000000000000000000000000000000000000000000005F
:40218000000000000000000000000000000000000000000000000000000000000000000000000000000000000000000000000000000000000000000000000000000000001F
:020000040003F7
:0200000480007A
:4000000002520040031501400117014001190140031B014002420140014301400348014010490140084C0140064D01400151014060026403E008E401EA09E204E204E00897
:40004000E401EA093E10CE20961082209610E2201220164072207F02822086409A20A302AA10AF02C430DC80DE20E010E480EA901080132015087B107F408080C40EDE03B6
:40008000831087409780A710AB20AD0403C00000030000000300030000000000000B0B000000000000020200000000000000000000000000000000000000000000000000B6
:4000C0000000000000000000000000000000000000000000000000000000000000000000000000000000000000000000000000000000000000000000000000000000000000
:4001000000000000000000000000000000000000000000000000000000000000000000000000000000000000000000000000000000000000000000000000000000000000BF
:40014000000000000000000000000000000000000000000000000000000000000000000000000000000000000000000000000000000000000000000000000000000000007F
:40018000000000000000000000000000000000000000000000000000000000000000000000000000000000000000000000000000000000000000000000000000000000003F
:0200000490006A
:0400000000004005B7
:0200000490105A
:04000000BC90ACAF55
:0200000490303A
:02000000BC0F33
:0200000490402A
:4000000000000000000000000000000000000000000000000000000000000000000000000000000000000000000000000000000000000000000000000000000000000000C0
:400040000000000000000000000000000000000000000000000000000000000000000000000000000000000000000000000000000000000000000000000000000000000080
:400080000000000000000000000000000000000000000000000000000000000000000000000000000000000000000000000000000000000000000000000000000000000040
:4000C0000000000000000000000000000000000000000000000000000000000000000000000000000000000000000000000000000000000000000000000000000000000000
:0200000490501A
:0C00000000012E16106900012E1FCC78A4
:00000001FF